:100000000C942A000C94DF030C9408040C94310423
:100010000C947D030C942C030C9403030C94B202F7
:100020000C9461020C9410020C94BF010C946E01AC
:100030000C9447000C9447000C9447000C94470024
:100040000C9447000C9447000C9447000C94470014
:100050000C94470011241FBECFE5D8E0DEBFCDBF12
:1000600010E0A0E6B0E0E8E5FDE002C005900D92EA
:10007000AA36B107D9F710E0AAE6B0E001C01D9298
:10008000A03BB107E1F70E9458060C94AA060C9415
:10009000000088E18AB986E880BD83E389B910BC95
:1000A00008955D9BFECF8CB908955F9BFECF8CB108
:1000B0000895613091F0613018F0643039F51AC05C
:1000C00020939A0030939B0040939C0050939D0096
:1000D0009093A5008093A4000895209390003093FE
:1000E00091004093920050939300909395008093D9
:1000F0009400089520936A0030936B0040936C0045
:1001000050936D0090937500809374000895823031
:1001100061F0833018F4882331F00895833041F082
:10012000843051F408C06CBF08957BBD6ABD08954A
:1001300079BD68BD089563BD08950F931F93E62FA1
:100140006230B9F0633018F4662331F038C06330A0
:10015000E9F06430A1F527C020939A0030939B000A
:1001600040939C0050939D0090939F0080939E002D
:1001700026C020937C0030937D0040937E005093F6
:100180007F00909381008093800019C020938600A7
:1001900030938700409388005093890090938B00A0
:1001A00080938A000CC020936A0030936B004093C8
:1001B0006C0050936D0090936F0080936E008E2FB3
:1001C000B8010E9487001F910F91089583B7887F1F
:1001D000826083BF8EB5887F83608EBD089583B7AC
:1001E0008E7F83BF83B78D7F83BF83B78B7F83BFB2
:1001F0008EB58E7F8EBD8EB58D7F8EBD8EB58B7F7D
:100200008EBD089590937B0080937A00089526B563
:1002100037B5C9010895882331F0813039F48EB59E
:100220008F7B8EBD08958EB580648EBD0895882322
:1002300039F0813029F0843019F489B7806489BF9E
:100240000895882339F0813029F0843019F489B772
:100250008F7B89BF089583B7806483BF83B788602D
:1002600083BF83B7806283BF83B78F7E83BF80E005
:1002700062E00E94210183B78E7F83BF83B78D7FA9
:1002800083BF83B78B7F83BF8FB58E7F8FBD8FB5C5
:1002900082608FBD8EB588608EBD8EB580618EBD4B
:1002A0008FB580688FBD8FB58F7B8FBD8FB5806216
:1002B0008FBD8FB58F7E8FBD83EC99E097BD86BDD6
:1002C00081E062E00E9421018EB58E7F8EBD8EB5E9
:1002D0008D7F8EBD8EB58B7F8EBD08951F920F9240
:1002E0000FB60F9211242F933F934F935F936F9309
:1002F0007F938F939F93AF93BF93EF93FF938091DF
:10030000A6009091A700A091A800B091A900019625
:10031000A11DB11D8093A6009093A700A093A800F3
:10032000B093A90020919A0030919B0040919C00CD
:1003300050919D0082179307A407B50779F4E091C7
:10034000A400F091A500309749F009951092A600FD
:100350001092A7001092A8001092A900FF91EF91AF
:10036000BF91AF919F918F917F916F915F914F91CD
:100370003F912F910F900FBE0F901F9018951F92D5
:100380000F920FB60F9211242F933F934F935F93C9
:100390006F937F938F939F93AF93BF93EF93FF934D
:1003A0008091A0009091A100A091A200B091A30023
:1003B0000196A11DB11D8093A0009093A100A09370
:1003C000A200B093A30020919A0030919B0040912D
:1003D0009C0050919D0082179307A407B50779F4FC
:1003E000E0919E00F0919F00309749F0099510929E
:1003F000A0001092A1001092A2001092A300FF9101
:10040000EF91BF91AF919F918F917F916F915F918C
:100410004F913F912F910F900FBE0F901F90189505
:100420001F920F920FB60F9211242F933F934F9369
:100430005F936F937F938F939F93AF93BF93EF934C
:10044000FF938091960090919700A0919800B091B1
:1004500099000196A11DB11D80939600909397007D
:10046000A0939800B0939900209190003091910052
:10047000409192005091930082179307A407B5070B
:1004800079F4E0919400F0919500309749F0099546
:100490001092960010929700109298001092990076
:1004A000FF91EF91BF91AF919F918F917F916F914C
:1004B0005F914F913F912F910F900FBE0F901F9022
:1004C00018951F920F920FB60F9211242F933F93FE
:1004D0004F935F936F937F938F939F93AF93BF934C
:1004E000EF93FF9380918C0090918D00A0918E00EE
:1004F000B0918F000196A11DB11D80938C00909347
:100500008D00A0938E00B0938F00209186003091D3
:100510008700409188005091890082179307A407B3
:10052000B50779F4E0918A00F0918B00309749F09B
:10053000099510928C0010928D0010928E001092EE
:100540008F00FF91EF91BF91AF919F918F917F911C
:100550006F915F914F913F912F910F900FBE0F9030
:100560001F9018951F920F920FB60F9211242F9380
:100570003F934F935F936F937F938F939F93AF932B
:10058000BF93EF93FF938091820090918300A0919D
:100590008400B09185000196A11DB11D8093820059
:1005A00090938300A0938400B093850020917C00F9
:1005B00030917D0040917E0050917F00821793071B
:1005C000A407B50779F4E0918000F091810030979D
:1005D00049F00995109282001092830010928400D5
:1005E00010928500FF91EF91BF91AF919F918F91F4
:1005F0007F916F915F914F913F912F910F900FBE1F
:100600000F901F9018951F920F920FB60F92112402
:100610002F933F934F935F936F937F938F939F930A
:10062000AF93BF93EF93FF93E0917A00F0917B003B
:10063000309709F00995FF91EF91BF91AF919F918C
:100640008F917F916F915F914F913F912F910F907B
:100650000FBE0F901F9018951F920F920FB60F921A
:1006600011242F933F934F935F936F937F938F93B7
:100670009F93AF93BF93EF93FF93809176009091F8
:100680007700A0917800B09179000196A11DB11D6D
:100690008093760090937700A0937800B0937900D0
:1006A00020916A0030916B0040916C0050916D0078
:1006B00082179307A407B50779F4E0917400F091CD
:1006C0007500309749F009951092760010927700E6
:1006D0001092780010927900FF91EF91BF91AF9145
:1006E0009F918F917F916F915F914F913F912F914A
:1006F0000F900FBE0F901F9018951F920F920FB67C
:100700000F9211242F933F934F935F936F937F9397
:100710008F939F93AF93BF93EF93FF93809170005C
:1007200090917100A0917200B09173000196A11D8B
:10073000B11D8093700090937100A0937200B093EC
:10074000730020916A0030916B0040916C005091D1
:100750006D0082179307A407B50779F4E0916E0046
:10076000F0916F00309749F0099510927000109247
:1007700071001092720010927300FF91EF91BF917F
:10078000AF919F918F917F916F915F914F913F9129
:100790002F910F900FBE0F901F9018958FB7806804
:1007A0008FBF08958FB78F778FBF0895E62FF0E042
:1007B000EE0FFF1FE655FF4F9183808308951F9230
:1007C0000F920FB60F9211242F933F934F935F9385
:1007D0006F937F938F939F93AF93BF93EF93FF9309
:1007E000E091AA00F091AB00309709F00995FF91D4
:1007F000EF91BF91AF919F918F917F916F915F9199
:100800004F913F912F910F900FBE0F901F90189511
:100810001F920F920FB60F9211242F933F934F9375
:100820005F936F937F938F939F93AF93BF93EF9358
:10083000FF93E091AC00F091AD00309709F009957D
:10084000FF91EF91BF91AF919F918F917F916F91A8
:100850005F914F913F912F910F900FBE0F901F907E
:1008600018951F920F920FB60F9211242F933F935A
:100870004F935F936F937F938F939F93AF93BF93A8
:10088000EF93FF93E091AE00F091AF00309709F045
:100890000995FF91EF91BF91AF919F918F917F91BA
:1008A0006F915F914F913F912F910F900FBE0F90DD
:1008B0001F90189585B78E7F85BF85B7826085BFED
:1008C0008BB780648BBF0E94CE0308951ABA17BA03
:1008D00014BA11BA1BBA18BA15BA12BA19BA16BA9A
:1008E00013BA10BA08954130B1F5813099F08130D2
:1008F00030F08230D1F0833009F067C021C02AB3D4
:1009000081E090E002C0880F991F6A95E2F7282BDA
:100910002ABB089527B381E090E002C0880F991F99
:100920006A95E2F7282B27BB089524B381E090E075
:1009300002C0880F991F6A95E2F7282B24BB0895FF
:1009400021B381E090E002C0880F991F6A95E2F719
:10095000282B21BB08954423C1F5813099F08130C3
:1009600028F08230D9F0833081F524C02AB381E0A9
:1009700090E002C0880F991F6A95E2F78095822364
:100980008ABB089527B381E090E002C0880F991FC9
:100990006A95E2F78095822387BB089524B381E0AE
:1009A00090E002C0880F991F6A95E2F78095822334
:1009B00084BB089521B381E090E002C0880F991FA5
:1009C0006A95E2F78095822381BB08954130B1F5A5
:1009D000813099F0813030F08230D1F0833009F0ED
:1009E00067C021C02BB381E090E002C0880F991F3F
:1009F0006A95E2F7282B2BBB089528B381E090E09D
:100A000002C0880F991F6A95E2F7282B28BB08952A
:100A100025B381E090E002C0880F991F6A95E2F744
:100A2000282B25BB089522B381E090E002C0880FF7
:100A3000991F6A95E2F7282B22BB08954423C1F53C
:100A4000813099F0813028F08230D9F0833081F5FF
:100A500024C02BB381E090E002C0880F991F6A95F3
:100A6000E2F7809582238BBB089528B381E090E064
:100A700002C0880F991F6A95E2F78095822388BB90
:100A8000089525B381E090E002C0880F991F6A9510
:100A9000E2F78095822385BB089522B381E090E040
:100AA00002C0880F991F6A95E2F78095822382BB66
:100AB0000895813051F0813030F0823041F0833040
:100AC00079F080E0089589B303C086B301C083B391
:100AD00090E002C0959587956A95E2F78170089538
:100AE00080B390E002C0959587956A95E2F7817092
:100AF0000895813091F0813028F08230C9F0833040
:100B000061F521C02BB381E090E002C0880F991FEE
:100B10006A95E2F728272BBB089528B381E090E07F
:100B200002C0880F991F6A95E2F7282728BB08950D
:100B300025B381E090E002C0880F991F6A95E2F723
:100B4000282725BB089522B381E090E002C0880FDA
:100B5000991F6A95E2F7282722BB0895813049F052
:100B6000813028F0823039F0833041F406C06ABB0E
:100B7000089567BB089564BB089561BB08958130F3
:100B800049F0813028F0823039F0833041F406C0DA
:100B90006BBB089568BB089565BB089562BB08955B
:100BA000813051F0813030F0823041F0833041F0BB
:100BB00080E0089589B3089586B3089583B30895B6
:100BC00080B308953E9A3F983D9886B1887F8660AD
:100BD00086B935983398379A089597B18770907E83
:100BE000892B87B9369A349BFECF349A24B135B11C
:100BF000C9010895FF920F931F93FF2480E06F2D8A
:100C000040E00E94E60480E064E00E9459058823E9
:100C100019F400E014E011C080E065E00E9459057D
:100C2000882319F401E015E008C080E066E00E9426
:100C300059058823C9F402E016E080E0612F0E9484
:100C400059058823D1F380E29EE40197F1F7802FC4
:100C500090E0FC01EE0FFF1FE80FF91FEF0DF11DF3
:100C6000E05AFF4F80810BC080E06F2D41E00E9471
:100C7000E604F39483E0F81609F0C0CF8FEF1F91DC
:100C80000F91FF90089580E06FE00E94AE0580E034
:100C90006FEF0E94BF050895682F81E040E00E9439
:100CA000E6040895682F81E041E00E94E60408957B
:100CB000CF93DF9380E060E041E00E94730483E023
:100CC00065E041E00E94730481E063E041E00E943E
:100CD000730480E060E040E00E94E6040E942B0183
:100CE0000E94E60082E06DE770E00E9487000E94AB
:100CF0004900C8ECD0E00E9455008E3419F480E021
:100D000060E026C0863431F480E060E040E00E947C
:100D1000E604F1CF8F3481F482E06AEF70E00E9444
:100D2000870080E29EE4FE013197F1F70197D9F741
:100D300082E06DE770E005C0813331F480E06FE759
:100D400070E00E948700D7CF8233A9F681E063E08C
:080D500041E0DDCFF894FFCF74
:0A0D580031323334353637383900B4
:00000001FF
